:02000004080AE8
:1000000000000A0834260A08000006000600050160
:080010000402E80500000000F5
:040018008C220A0824
:10001C0009480A4908B5884205D0094A824202D0EB
:10002C00121A02F0CDF80748074A0021121A02F002
:10003C00D2F8064808BD00BF00000020A4250A081D
:10004C0068000020680000200C0600200C06002030
:10005C0070B500F0B7FC074B074C1E46E41AA40819
:10006C000025A54204D056F8253098470135F8E70D
:10007C0070BD00BF60250A0894250A0800F014B86A
:10008C0008B500F03DF8BDE8084000F05DBC00F09C
:10009C0001BB00F007BB0078B0FA80F04009704754
:1000AC00012303707047000010B5114800F0C2F82E
:1000BC00104800F0BFF801F049F84FF4165101F068
:1000CC002BF80D4C01F042F803681B69984770B986
:1000DC0001F03CF8094900F076FB00F055F920607E
:1000EC0000F0B8FA4FF47A7000F0CCFBEAE710BDE0
:1000FC006C0000207C00002034050020A0220A089F
:10010C0030B5364895B000F0EFF804464FF47A70ED
:10011C0000F0B8FB324800F0E7F80546204601F045
:10012C008FFD02460B4605A82E4900F0C3FA01F0DC
:10013C000DF82D4900F047FB01F008F805A900F077
:10014C0042FB284601F07CFD02460B460AA82549D5
:10015C0000F0B0FA00F0FAFF234900F034FB00F095
:10016C00F5FF0AA900F02FFB2946204601F0C2FD3D
:10017C0001F066FD02460B460FA81A4900F09AFAE8
:10018C0000F0E4FF184900F01EFB00F0DFFF0FA9A0
:10019C0000F019FB154B16491B7803A88DF800309D
:1001AC003C230DEB030200F07BFD049C7CB16368E7
:1001BC00013B63605BB9236820469B689847A36842
:1001CC00013BA3601BB923682046DB6898474EF6B9
:1001DC00602000F057FB15B030BD00BF6C00002054
:1001EC007C000020B8220A0876230A087800002038
:1001FC00BB220A0810B5084B01241C7000F08CF8C7
:10020C0022460A21054800F00DF8BDE810400322F3
:10021C000421034800F006B8780000206C00002090
:10022C007C00002010B5024C41600460826010BD5F
:10023C00000080BF10B504460121808801F0C6F98A
:10024C0020890021BDE8104001F0C0B92DE9F0472C
:10025C00074600F0A1F8BB881C26224D73432A6880
:10026C008046D118D3588A880A201A8300F07CF86B
:10027C00BB882A687343D118D3588A885A8300F0F4
:10028C007BF881463B892A687343D118D3588A88F6
:10029C001B691A4208D100F06FF8C9EB0004B4F5E1
:1002AC00FA6FEFD3002417E000F066F847F2471618
:1002BC0081464FF01C0A3B892A680AFB03F3D118CC
:1002CC00D3588A881B691A4206D000F055F8C9EB3E
:1002DC000004B442EFD9E5E7404600F065F820464B
:1002EC00BDE8F0878800002010B50446FFF7AEFF8C
:1002FC0008B9206810BD01F0ADFD024901F002FE05
:10030C0010BD00BF287E8C3C08B500F005F8014BF1
:10031C00186008BD8800002008B5024B1B681B68DC
:10032C00019308BDB001060808B5024B1B689B6819
:10033C00019308BDB001060808B5024B1B68DB69C8
:10034C00019308BDB401060808B5024B1B681B6A73
:10035C00019308BDB401060808B5024B1B685B6825
:10036C00019308BD9C01060808B5024B1B68DB68AD
:10037C00019308BD9C01060808B5024B1B681B695C
:10038C00019308BD9C01060808B5024B1B685B690C
:10039C00019308BD9C01060808B5024B1B689B6BBA
:1003AC00019308BD9C01060808B5024B1B68DB6B6A
:1003BC00019308BD9C01060808B5024B1B685B6CD9
:1003CC00019308BDD001060808B5024B1B689B6C55
:1003DC00019308BDD001060808B5024B1B689B6948
:1003EC00019308BDC401060808B5024B1B685B6A83
:1003FC00019308BDC401060808B5024B1B689B6A33
:10040C00019308BDC401060808B5024B1B68DB6AE2
:10041C00019308BDC401060808B5024B1B681B6B91
:10042C00019308BDC401060808B5024B1B685B6B41
:10043C00019308BDC401060808B5024B1B689B6BF1
:10044C00019308BDC401060808B5024B1B681B6C60
:10045C00019308BDC401060808B5024B1B681B6E4E
:10046C00019308BDAC01060808B5024B1B685B6E16
:10047C00019308BDAC01060808B5024B1B689B6EC6
:10048C00019308BDAC01060808B5024B1B68DB6E76
:10049C00019308BDAC01060808B5024B1B681B6F25
:1004AC00019308BDAC01060808B5024B1B685B6FD5
:1004BC00019308BDAC01060808B5034B1B68D3F8C3
:1004CC008030019308BD0000AC01060808B5024B52
:1004DC001B681B68019308BDD801060808B5024BC0
:1004EC001B685B68019308BDD801060808B5024B70
:1004FC001B681B69019308BDD801060808B5024B9F
:10050C001B685B69019308BDD801060808B5024B4E
:10051C001B689B69019308BDD801060808B5024BFE
:10052C001B68DB69019308BDD801060808B5024BAE
:10053C001B681B6A019308BDD801060808B5024B5D
:10054C001B689B6C019308BDC001060808B5024BE3
:10055C001B685B68019308BDA401060808B5024B33
:10056C001B685B69019308BDA401060808B5024B22
:10057C001B68DB6C019308BDA401060808B5024B8F
:10058C001B685B6D019308BDA401060808B5034BFD
:10059C001B68D3F89030019308BD0000A401060835
:1005AC0008B5034B1B68D3F89C30019308BD0000C1
:1005BC00A401060808B5024B1B685B68019308BDD3
:1005CC00C801060808B5024B1B689B68019308BD5F
:1005DC00C801060808B5024B1B68DB68019308BD0F
:1005EC00C801060808B5024B1B681B69019308BDBE
:1005FC00C801060808B5024B1B685B69019308BD6E
:10060C00C801060808B5024B1B689B69019308BD1D
:10061C00C801060808B5024B1B68DB69019308BDCD
:10062C00C801060808B5024B1B681B6A019308BD7C
:10063C00C801060808B5024B1B681B6B019308BD6B
:10064C00C801060808B5024B1B685B6B019308BD1B
:10065C00C801060808B5024B1B689B68019308BDCE
:10066C00CC01060808B5024B1B685B69019308BDF9
:10067C00CC01060808B5024B1B681B6A019308BD28
:10068C00CC01060808B5024B1B68DB6B019308BD57
:10069C00CC01060808B5024B1B681B68019308BD0A
:1006AC00A001060808B5024B1B685B68019308BDE6
:1006BC00A001060808B5024B1B68DB68019308BD56
:1006CC00A001060808B5024B1B68DB6A019308BD44
:1006DC00A001060808B5024B1B681B6B019308BDF3
:1006EC00A001060870B504460E46002540F8085FC8
:1006FC00FFF762FE30462670FFF71EFE656020464F
:10070C0070BD0078FFF720BE10B50446006818B124
:10071C00FFF7C8FF0023236010BD10B50446FFF798
:10072C00F3FF204610BD00004FF6FF7310B5084CC8
:10073C0000202060A080A07120816381FFF706FF5C
:10074C002046BDE81040034A034900F0A9BF00BF92
:10075C008C0000206800002027070A08F8B5064620
:10076C000D468F180024BD420CD0336815F8011BC0
:10077C009B6830469847002801DB0444F3E7002CC3
:10078C0008BF04462046F8BD70B505460C46084621
:10079C0049B101F06CFD2B68024621462846BDE8A4
:1007AC007040DB68184770BD03689B68184738B504
:1007BC000D210546FFF7F8FF0A2104462846FFF7EE
:1007CC00F3FF204438BD38B50546FFF7DDFF04467E
:1007DC002846FFF7ECFF204438BD012A98BF0A22B7
:1007EC0030B50B468BB000218DF824100DF123048D
:1007FC00B3FBF2F505FB1233DBB2092B94BF30339C
:10080C003733DBB2214604F801392B46002DEFD1EA
:10081C00FFF7BAFF0BB030BD00231A4619464068EB
:10082C00FFF7E8BE38B5046805467CB16368013B48
:10083C0063605BB9236820469B689847A368013BBB
:10084C00A3601BB923682046DB689847284638BD4F
:10085C000B68036013B15A6801325A60704700008C
:10086C00014A024B1A60704743230A089800002083
:10087C00024B1A68024B1A60704700BF0000002040
:10088C009C0000200021FFF769BE10B58368044668
:10089C0013B1032201469847204610BD10B50446FB
:1008AC00FFF7F3FF204610BD13B50B46044603C8F3
:1008BC008DE8030093E8030084E803009DE803003F
:1008CC0083E8030002B010BD034800238360034A91
:1008DC00034900F0E5BE00BFA00000206800002026
:1008EC00A9080A0808B5144B33B100F02FFC0368B3
:1008FC001B699847002816DC104B33B100F0E4FC60
:10090C0003681B699847002810DC0D4B0BB1AFF343
:10091C0000800C4B7BB100F055FC03681B699847B9
:10092C00002806DC08BDAFF30080E5E7AFF30080DC
:10093C00EBE7AFF3008008BD0000000000000000F2
:10094C00000000000000000008B5FFF7CBFFFFF728
:10095C001BFD014B186008BD340500200248034AFA
:10096C000349121A01F02CBC004002400440024022
:10097C00A0250A0807B5002300931A466FF07701EB
:10098C00FFF70EFE03B05DF804FB000007B54388CB
:10099C000A2B08D0502B09D1094B1B683BB103B073
:1009AC005DF804EB1847FFF7E5FF06E00023009322
:1009BC001A466FF07701FFF7F3FD03B05DF804FB07
:1009CC00B000002038B5104C104D2368AB42104BD2
:1009DC000CBF012200221A7002D0FFF7BFFF256066
:1009EC00FFF7BAFC044601F0FFFB0A4B13B120469B
:1009FC00AFF3008000210748FFF744FEBDE8384004
:100A0C0000210548FFF7C2BD004002401E1C279A7A
:100A1C00B40000200000000099090A08704700206B
:100A2C00704710B50446102100F048FE204610BD5A
:100A3C0008B508B1FFF7F5FF08BD002202604FF6BC
:100A4C009C72828010B5B1F9044084808A8002685F
:100A5C000C6804600A6010BD10B504460068FFF70E
:100A6C0021FE204610BD38B5C468F4B12378022BA2
:100A7C0003D104F10C00FFF7EFFF656835B1284690
:100A8C00FFF703FF1021284600F018FEA56835B1CA
:100A9C002846FFF7FAFE1021284600F00FFE2046EC
:100AAC00BDE83840142100F009BE38BD13B504462A
:100ABC0091E8050000234B600B602060626001A888
:100ACC0001930093FFF7AEFE204602B010BDF7B5C0
:100ADC000C4606460F4654F8043B02AD45F8083D5B
:100AEC00214601A8FFF7B4FE29463046FFF7DEFF8A
:100AFC0001A8FFF797FE2046FFF794FE3846082121
:100B0C0000F0DCFD304603B0F0BD000038B500232A
:100B1C000446036010200D46FFF7B9FA28B10123F3
:100B2C0043608360024BC56003602060204638BD83
:100B3C00E0230A08826810B50AB900F0D2FDC36838
:100B4C00BDE81040184708B5006800F11001FFF728
:100B5C00F1FF08BD826810B50AB900F0C2FDC36888
:100B6C00BDE81040184708B5006800F11001FFF708
:100B7C00F1FF08BD38B5002383608B6804460D4631
:100B8C002BB102229847EB68E360AB68A360204668
:100B9C0038BD0000F0B589B004686846FFF74DFF1A
:100BAC004FF0020200238DF80830D4E84F3F002BA1
:100BBC0003D1C4E8412F0029F7D102D08DF80830B9
:100BCC0063E014F10C0503D069462846FFF735FFA6
:100BDC00BFF35F8F01236370BFF35F8F04F10803D2
:100BEC00002053E8006F43E80002002AF9D1BFF35C
:100BFC005F8F002E49D0FFF7B9FC20B12946304653
:100C0C00FFF798FF3AE0314602A8FFF7B3FFE06820
:100C1C00B4F9105008B101F00FFB06901020ADF89C
:100C2C001C50FFF734FA0546E8B1002787601820FE
:100C3C00FFF72DFA044688B10146876002A8FFF73A
:100C4C0033FE049BA268A360059B0492E26806A98C
:100C5C00E36004F110000592FFF7EFFE0D4B2C60E2
:100C6C00EB600D4BAB6006A8FFF7F6FE02A8FFF792
:100C7C000CFE002229460948FFF780FC3046FFF79E
:100C8C0004FE1021304600F019FD6846FFF7E4FE23
:100C9C0009B0F0BD530B0A08C90D0A0821130A0844
:100CAC002DE9F04F8BB006460F46904699469DF8BD
:100CBC0050A0FFF7D7FC07AD834630BB4FF62E7321
:100CCC00059005A92846ADF81830FFF7B6FE14209C
:100CDC00FFF7DDF9044658B102230370012343707A
:100CEC00C0F804B0C0F808B029460C30FFF7A5FED8
:100CFC003046214640F8044BFFF708FF2846FFF723
:100D0C00ABFE05A8FFF7A8FE52E000240C2314202C
:100D1C006C60AC600793FFF7BAF9014618B1047028
:100D2C0044704460846004A80391FFF7EFFE224BEB
:100D3C0008200893FFF7ABF9044628B1039B04A9DC
:100D4C0040F8043BFFF784FD00955FFA8AF34A46AE
:100D5C00414638460994FFF78DFC20B9039B5B781C
:100D6C0003F0FF0283B1039B04A906A80593FFF7C8
:100D7C006FFD05A93046FFF799FE06A8FFF752FD57
:100D8C0004A8FFF74FFD13E04FF69C7305A903A8C9
:100D9C000592ADF81830FFF7FDFE05A8FFF75CFED5
:100DAC0005A80999FFF793FE06A8FFF73BFDDAE7C4
:100DBC0030460BB0BDE8F08F390F0A08022AF8B59F
:100DCC00044606D0032A17D0012A22D10B680360EF
:100DDC001FE018200E68FFF75AF9054650B131464E
:100DEC00FFF7C8FE3069B6F9147008B101F024FAA7
:100DFC002861AF8225600CE0046854B104F1100046
:100E0C00FFF72AFE2046FFF740FD1821204600F090
:100E1C0055FC0020F8BD38B5002383608B68044670
:100E2C000D462BB102229847EB68E360AB68A360D8
:100E3C00204638BD022A70B5044606D0032A11D0CC
:100E4C00012A18D10B68036015E014200E68FFF717
:100E5C001EF9054620B13146FFF7DDFF337C2B74BC
:100E6C00256008E0046834B12046FFF70EFD14211C
:100E7C00204600F023FC002070BD0000F0B50C46AD
:100E8C00BFF35F8F87B0002350E8006F40E800325B
:100E9C00002AF9D1BFF35F8F002E3FD01846FFF721
:100EAC0065FB074620B121463046FFF753FE2EE086
:100EBC00314601A8FFF7AFFF237810208DF81430CE
:100ECC00FFF7E5F80546D0B187601420FFF7DFF88F
:100EDC00044678B18760014601A8FFF7E5FC039B47
:100EEC00A268A360049B0392E268E3609DF814304F
:100EFC00049223740A4B2C60EB600A4BAB6001A884
:100F0C00FFF7C3FC002229460748FFF737FB3046A2
:100F1C00FFF7BBFC1021304600F0D0FB07B0F0BD52
:100F2C00730B0A08410E0A0821130A0830B504464F
:100F3C0085B00D4668461146FFF7C9FD7CB124B259
:100F4C0028460DB101F078F9029002A96846ADF877
:100F5C000C40FFF71FFE02A8FFF77EFD1DE04FF0CF
:100F6C00010200988DF80840D0E84F3FA34203D10E
:100F7C00C0E8412F0029F7D102D08DF808300CE0E1
:100F8C0010F10C014FF0010318BF0373BFF35F8F17
:100F9C00043000F8033CFFF771FF01A8FFF742FC97
:100FAC0005B030BD704710B50446182100F086FB23
:100FBC00204610BDF8B50F4600F10806051D0024AB
:100FCC0016F8011D0A223846FFF707FCAE4204440E
:100FDC0007D0002CF4D02E213846FFF7E5FB044453
:100FEC00EEE72046F8BD000010B50446044B112274
:100FFC0040F8043B002101F0EEF8204610BD00BF84
:10100C00FC230A080346074A10B543F8042B01F1E8
:10101C00100251F8044B914243F8044BF9D10A7871
:10102C001A7010BDFC230A08024A416002600422B7
:10103C0002757047FC230A0810B59DF8084044EA75
:10104C00032343EA024242EA01610423416003752F
:10105C0010BD000037B5044D05609DF81850009583
:10106C00FFF7EAFF03B030BDFC230A084174704758
:10107C00704708B50021007CFFF748FA30EA2000E1
:10108C0028BF4FF0FF3008BD08B50121007CFFF7E9
:10109C003DFA30EA200028BF4FF0FF3008BD08B5FC
:1010AC00007CFFF72BFA20EAE07008BD08B5007C45
:1010BC00FFF71CFA20EAE07008BD007CFFF736BA97
:1010CC0010B50446142100F0F9FA204610BD38B5CD
:1010DC000446007C0D46FFF711FA002801DC607C09
:1010EC0028B12946207CFFF719FA20EAE07038BDB8
:1010FC0010B50446002363604FF47A73A360054B6C
:10110C00084623600123217463741146FFF7DEF94E
:10111C00204610BD10240A080022007CFFF7DEB91F
:10112C0010B504461422002101F055F8054B204659
:10113C006360054BE36040F201132381812323821A
:10114C0010BD00BF3D010020BC00002030B50E4D8D
:10115C0087B001A8FFF7E4FF296811F0010410D152
:10116C002846FEF798FF60B101AA21460748FFF711
:10117C00BFFF2846FEF794FF054A0649034800F0D6
:10118C008FFA024807B030BDB800002040020020A2
:10119C00680000207D100A0810B5044614220021B6
:1011AC0001F019F8054B20466360054BE36040F2F3
:1011BC00011323818123238210BD00BFF002002084
:1011CC005802002010B50E4C86B001A8FFF7E4FFC2
:1011DC002368DB0710D42046FEF75DFF60B101AA3F
:1011EC0001210848FFF784FF2046FEF759FF064A05
:1011FC000649044800F054FA024806B010BD00BF7E
:10120C0054020020DC020020680000207D100A0837
:10121C0070474174704708B5007CFFF715F920EA58
:10122C00E07008BD08B5007CFFF7E6F820EAE07036
:10123C0008BD08B5007CFFF7EFF830EA200028BFA6
:10124C004FF0FF3008BD08B5007CFFF7DDF830EA41
:10125C00200028BF4FF0FF3008BD007CFFF7E4B83A
:10126C0010B50446142100F029FA204610BD70B5C3
:10127C00457C04460E4625B9007CFFF7E5F80028AE
:10128C0005DD3146207CBDE87040FFF7ADB828463F
:10129C0070BD000010B5044608461146002262607D
:1012AC004FF47A72A260054A2074226001226274A3
:1012BC001A46FFF791F8204610BD00BF40240A08DB
:1012CC00007CFFF7B9B8000038B50C4D296811F057
:1012DC00010411D12846FEF7DEFE68B1084A21460A
:1012EC00084B0948FFF7D6FF2846FEF7D9FE074AF8
:1012FC000749054800F0D4F9034838BD8C04002098
:10130C009004002008040020F40300206800002052
:10131C001D120A0810B5836804460BB900F0E1F9F8
:10132C00C3689847A3681BB10322214620469847FF
:10133C002046BDE81040102100F0C0B97047F8B548
:10134C00064615460C468F18BC4206D0336814F876
:10135C00011B9B6830469847F6E72846F8BD0022EB
:10136C00007CFFF779B80021007CFFF77DB80021E5
:10137C00007CFFF781B80021007CFFF785B80021C5
:10138C00007CFFF789B810B50446142100F096F9DB
:10139C00204610BD10B50446002363604FF47A73E9
:1013AC00A360044B2174084623601146FFF784F8B0
:1013BC00204610BD70240A080021007CFFF774B889
:1013CC00002211464068FFF70DB9F0B5164689B0FA
:1013DC0011220F460446002103A800F0FCFE304603
:1013EC0000F045FF0025009581B27B6803AA3046CA
:1013FC00FFF7A4F820B129462046FFF715FE03E0BD
:10140C0003A92046FFF7FEFD204609B0F0BD0022DF
:10141C0011464068FFF706B9002211464068FFF7F5
:10142C0011B900224068FFF705B9002281F00101D3
:10143C004068FFF7EFB800231A4619464068FFF7DB
:10144C00E1B8002211464068FFF7BCB80022022127
:10145C004068FFF7BFB800231A464068FFF7AAB8E8
:10146C00024B04225A60024A1A607047140500208D
:10147C0098240A0800231A464068FFF79BB80022FC
:10148C0002214068FFF7A6B8002211464068FFF71A
:10149C0099B8002211464068FFF7A4B800231A46F9
:1014AC0019464068FFF7A6B800231A46194640684B
:1014BC00FFF7A8B8002281F001014068FFF7AAB835
:1014CC0000224068FFF7B6B8002211464068FFF7CB
:1014DC00B9B8002211464068FFF7A4B870B516469B
:1014EC008EB0044608A8FFF77FFD1122002103A847
:1014FC0000F071FE304600F0BAFE00250A4B009554
:10150C0081B25B6803AA3046FFF718F820B1294670
:10151C002046FFF789FD03E003A92046FFF772FD83
:10152C0020460EB070BD00BF14050020024B034ACC
:10153C001A6000225A6070471C050020CC240A084F
:10154C0010B50446806808B1FEF73EFF204610BD7A
:10155C0070B51A4E0446316811F001050FD13046B2
:10156C00FEF799FD58B129461548FFF7BBF83046F0
:10157C00FEF796FD134A1449114800F091F81048F3
:10158C00FFF7BFF828B1A4F10D03022B01D80020FE
:10159C0070BD00F05FF8FFF70FFF08B1012CF6D912
:1015AC00FFF792FEFFF78CFE18B1A4F11203012B8A
:1015BC00EDD9172C8CBF0020012070BD2405002014
:1015CC0028050020680000204D150A08172838B59A
:1015DC0004460D460AD8FF2908D0FFF7B9FF28B1F9
:1015EC0029462046BDE83840FEF79EBE38BD0000B7
:1015FC0013B5084C00231A46194600932046FFF7F2
:10160C0029FD2046044A054902B0BDE8104000F00F
:10161C0047B800BF3805002068000020B10F0A0849
:10162C0070B5044614252A46094E002100F0D3FD5E
:10163C00258020253146A5602561284600F040F81C
:10164C0031466060284600F03BF8E060204670BDF3
:10165C00F8240A0830B50E4D87B0296811F0010442
:10166C0013D12846FEF717FD78B101A8FFF7D8FF74
:10167C0001AA21460748FFF78DFE2846FEF710FD0C
:10168C00054A0649034800F00BF8024807B030BD84
:10169C0050050020540500206800002049130A085A
:1016AC000B460146184600F07DBD0000024B186841
:1016BC00BFF35F8F704700BF68050020FEF7E9BCE1
:1016CC0000F000B810B5002814BF044601242046D1
:1016DC00FEF7E0FF20B9FFF7E9FF08B18047F6E716
:1016EC0010BD08B5FEF7EEFF184B1A68D1075CBFAA
:1016FC0001221A60164B1A68D2075CBF01221A60CD
:10170C00144B1A68D0075CBF01221A60124B1A687E
:10171C00D1075CBF01221A60104B1A68D2075CBF5C
:10172C0001221A600E4B1A68D0075CBF01221A60A6
:10173C000C4B1A68D1075CBF01221A600A4B1A685D
:10174C00D2075CBF01221A60704700BF88050020D9
:10175C0084050020800500207C05002078050020F1
:10176C0074050020700500206C050020244B1A68BD
:10177C00D0075CBF01221A60224B1A68D1075CBFEC
:10178C0001221A60204B1A68D2075CBF01221A6032
:10179C001E4B1A68D0075CBF01221A601C4B1A68DA
:1017AC00D1075CBF01221A601A4B1A68D2075CBFC2
:1017BC0001221A60184B1A68D0075CBF01221A600C
:1017CC00164B1A68D1075CBF01221A60144B1A68B9
:1017DC00D2075CBF01221A60124B1A68D0075CBF9B
:1017EC0001221A60104B1A68D1075CBF01221A60E3
:1017FC000E4B1A68D2075CBF01221A60704700BFFB
:10180C00B8050020B4050020B0050020AC05002070
:10181C00A8050020A4050020A00500209C050020A0
:10182C009805002094050020900500208C050020D0
:10183C00244B1A68D0075CBF01221A60224B1A682D
:10184C00D1075CBF01221A60204B1A68D2075CBF1B
:10185C0001221A601E4B1A68D0075CBF01221A6065
:10186C001C4B1A68D1075CBF01221A601A4B1A680C
:10187C00D2075CBF01221A60184B1A68D0075CBFF4
:10188C0001221A60164B1A68D1075CBF01221A603C
:10189C00144B1A68D2075CBF01221A60124B1A68EB
:1018AC00D0075CBF01221A60104B1A68D1075CBFCD
:1018BC0001221A600E4B1A68D2075CBF01221A6013
:1018CC00704700BFE8050020E4050020E00500207B
:1018DC00DC050020D8050020D4050020D005002010
:1018EC00CC050020C8050020C4050020C005002040
:1018FC00BC050020184B1A68D1075CBF01221A6086
:10190C00164B1A68D2075CBF01221A60144B1A6876
:10191C00D0075CBF01221A60124B1A68D1075CBF5A
:10192C0001221A60104B1A68D2075CBF01221A60A0
:10193C000E4B1A68D0075CBF01221A600C4B1A6858
:10194C00D1075CBF01221A600A4B1A68D2075CBF30
:10195C0001221A60704700BF080600200406002010
:10196C0000060020FC050020F8050020F4050020EE
:10197C00F0050020EC05002081F0004102E000BFE2
:10198C0083F0004330B54FEA41044FEA430594EA33
:10199C00050F08BF90EA020F1FBF54EA000C55EA6E
:1019AC00020C7FEA645C7FEA655C00F0E2804FEA3F
:1019BC005454D4EB5555B8BF6D420CDD2C4480EA21
:1019CC00020281EA030382EA000083EA010180EA51
:1019DC00020281EA0303362D88BF30BD11F0004F9F
:1019EC004FEA01314FF4801C4CEA113102D04042D5
:1019FC0061EB410113F0004F4FEA03334CEA133310
:101A0C0002D0524263EB430394EA050F00F0A78027
:101A1C00A4F10104D5F1200E0DDB02FA0EFC22FA22
:101A2C0005F2801841F1000103FA0EF2801843FA16
:101A3C0005F359410EE0A5F120050EF1200E012A07
:101A4C0003FA0EFC28BF4CF0020C43FA05F3C01845
:101A5C0051EBE37101F0004507D54FF0000EDCF1BE
:101A6C00000C7EEB00006EEB0101B1F5801F1BD367
:101A7C00B1F5001F0CD349085FEA30004FEA3C0C6B
:101A8C0004F101044FEA445212F5800F80F09A8061
:101A9C00BCF1004F08BF5FEA500C50F1000041EB65
:101AAC00045141EA050130BD5FEA4C0C404141EB69
:101ABC00010111F4801FA4F10104E9D191F0000F90
:101ACC0004BF01460020B1FA81F308BF2033A3F113
:101ADC000B03B3F120020CDA0C3208DD02F1140C0A
:101AEC00C2F10C0201FA0CF021FA02F10CE002F145
:101AFC001402D8BFC2F1200C01FA02F120FA0CFC3E
:101B0C00DCBF41EA0C019040E41AA2BF01EB045186
:101B1C00294330BD6FEA04041F3C1CDA0C340EDC84
:101B2C0004F11404C4F1200220FA04F001FA02F3C7
:101B3C0040EA030021FA04F345EA030130BDC4F185
:101B4C000C04C4F1200220FA02F001FA04F340EA7A
:101B5C000300294630BD21FA04F0294630BD94F02B
:101B6C00000F83F4801306BF81F480110134013D12
:101B7C004EE77FEA645C18BF7FEA655C29D094EA83
:101B8C00050F08BF90EA020F05D054EA000C04BF01
:101B9C001946104630BD91EA030F1EBF00210020EC
:101BAC0030BD5FEA545C05D14000494128BF41F08B
:101BBC00004130BD14F580043CBF01F5801130BDEF
:101BCC0001F0004545F0FE4141F470014FF000007A
:101BDC0030BD7FEA645C1ABF194610467FEA655C2B
:101BEC001CBF0B46024650EA013406BF52EA0335CD
:101BFC0091EA030F41F4002130BD00BF90F0000FBB
:101C0C0004BF0021704730B54FF4806404F13204F6
:101C1C004FF000054FF0000150E700BF90F0000FAF
:101C2C0004BF0021704730B54FF4806404F13204D6
:101C3C0010F0004548BF40424FF000013EE700BFA6
:101C4C0042004FEAE2014FEA31014FEA02701FBF36
:101C5C0012F07F4393F07F4F81F06051704792F008
:101C6C00000F14BF93F07F4F704730B54FF4607482
:101C7C0001F0004521F0004120E700BF50EA0102CD
:101C8C0008BF704730B54FF000050AE050EA01027A
:101C9C0008BF704730B511F0004502D5404261EBEA
:101CAC0041014FF4806404F132045FEA915C3FF42B
:101CBC00DCAE4FF003025FEADC0C18BF03325FEAC4
:101CCC00DC0C18BF033202EBDC02C2F1200300FA79
:101CDC0003FC20FA02F001FA03FE40EA0E0021FA9E
:101CEC0002F11444C1E600BF80F0004002E000BFE6
:101CFC0081F0004142001FBF5FEA410392EA030FEB
:101D0C007FEA226C7FEA236C6AD04FEA1262D2EB34
:101D1C001363C1BFD218414048404140B8BF5B4239
:101D2C00192B88BF704710F0004F40F4000020F0D2
:101D3C007F4018BF404211F0004F41F4000121F0E8
:101D4C007F4118BF494292EA030F3FD0A2F1010232
:101D5C0041FA03FC10EB0C00C3F1200301FA03F170
:101D6C0000F0004302D5494260EB4000B0F5000F93
:101D7C0013D3B0F1807F06D340084FEA310102F152
:101D8C000102FE2A51D2B1F1004F40EBC25008BF04
:101D9C0020F0010040EA03007047490040EB0000CE
:101DAC0010F4000FA2F10102EDD1B0FA80FCACF1FD
:101DBC00080CB2EB0C0200FA0CF0AABF00EBC250FC
:101DCC0052421843BCBFD0401843704792F0000FEA
:101DDC0081F4000106BF80F400000132013BB5E73D
:101DEC004FEA41037FEA226C18BF7FEA236C21D0B3
:101DFC0092EA030F04D092F0000F08BF0846704718
:101E0C0090EA010F1CBF0020704712F07F4F04D1E5
:101E1C00400028BF40F00040704712F100723CBFF8
:101E2C0000F50000704700F0004343F0FE4040F422
:101E3C00000070477FEA226216BF08467FEA2363E0
:101E4C000146420206BF5FEA412390EA010F40F4CB
:101E5C00800070474FF0000304E000BF10F0004317
:101E6C0048BF40425FEA000C08BF704743F09643FE
:101E7C0001464FF000001CE050EA010208BF704719
:101E8C004FF000030AE000BF50EA010208BF7047A0
:101E9C0011F0004302D5404261EB41015FEA010CB5
:101EAC0002BF84460146002043F0B64308BFA3F1AD
:101EBC008053A3F50003BCFA8CF2083AA3EBC2538F
:101ECC0010DB01FA02FC634400FA02FCC2F12002AE
:101EDC00BCF1004F20FA02F243EB020008BF20F0E5
:101EEC000100704702F1200201FA02FCC2F120024B
:101EFC0050EA4C0021FA02F243EB020008BF20EA40
:101F0C00DC7070474FF0FF0C1CEAD0521EBF1CEA6D
:101F1C00D15392EA0C0F93EA0C0F6FD01A4480EA5B
:101F2C00010C400218BF5FEA41211ED04FF0006344
:101F3C0043EA501043EA5111A0FB01310CF0004070
:101F4C00B1F5000F3EBF490041EAD3715B0040EA96
:101F5C00010062F17F02FD2A1DD8B3F1004F40EB66
:101F6C00C25008BF20F00100704790F0000F0CF039
:101F7C00004C08BF49024CEA502040EA51207F3AFD
:101F8C00C2BFD2F1FF0340EAC250704740F40000D8
:101F9C004FF00003013A5DDC12F1190FDCBF00F0C9
:101FAC0000407047C2F10002410021FA02F1C2F177
:101FBC00200200FA02FC5FEA310040F1000053EA13
:101FCC004C0308BF20EADC70704792F0000F00F061
:101FDC00004C02BF400010F4000F013AF9D040EA67
:101FEC000C0093F0000F01F0004C02BF490011F4FB
:101FFC00000F013BF9D041EA0C018FE70CEAD153F9
:10200C0092EA0C0F18BF93EA0C0F0AD030F0004C78
:10201C0018BF31F0004CD8D180EA010000F000402C
:10202C00704790F0000F17BF90F0004F084691F0EA
:10203C00000F91F0004F14D092EA0C0F01D1420224
:10204C000FD193EA0C0F03D14B0218BF084608D1ED
:10205C0080EA010000F0004040F0FE4040F4000037
:10206C00704740F0FE4040F4400070474FF0FF0CCA
:10207C001CEAD0521EBF1CEAD15392EA0C0F93EA11
:10208C000C0F69D0A2EB030280EA010C49024FEA63
:10209C00402037D04FF0805343EA111143EA10131C
:1020AC000CF000408B4238BF5B0042F17D024FF4D4
:1020BC00000C8B4224BF5B1A40EA0C00B3EB510FAF
:1020CC0024BFA3EB510340EA5C00B3EB910F24BF98
:1020DC00A3EB910340EA9C00B3EBD10F24BFA3EB1D
:1020EC00D10340EADC001B0118BF5FEA1C1CE0D1E5
:1020FC00FD2A3FF650AF8B4240EBC25008BF20F098
:10210C00010070470CF0004C4CEA50207F32C2BFEB
:10211C00D2F1FF0340EAC250704740F400004FF088
:10212C000003013A37E792F0000F00F0004C02BFB9
:10213C00400010F4000F013AF9D040EA0C0093F083
:10214C00000F01F0004C02BF490011F4000F013BDD
:10215C00F9D041EA0C0195E70CEAD15392EA0C0F45
:10216C0008D142027FF47DAF93EA0C0F7FF470AF7D
:10217C00084676E793EA0C0F04D14B023FF44CAFC0
:10218C0008466EE730F0004C18BF31F0004CCAD155
:10219C0030F000427FF45CAF31F000437FF43CAF91
:1021AC005FE700BF10B5054C13462CB10A4601463B
:1021BC000220AFF3008010BD204610BD00000000CF
:1021CC0010B5431E0A44914204D011F8014B03F898
:1021DC00014FF8E710BD03460244934202D003F8C6
:1021EC00011BFAE77047000038B5124B05461C6816
:1021FC00A36BD3B91820FEF74DFA43F20E33A0634C
:10220C0003804AF6CD33438041F2342383804EF26F
:10221C006D63C3804DF6EC630381052343810B236F
:10222C00838101220023C0E90423A36B00221D61DA
:10223C005A6138BD64000020024B0146186800F05A
:10224C0003B800BF6400002070B5064608460C4673
:10225C0000F00DF8451C29463046FEF73BFA0646C1
:10226C0018B12A462146FFF7ABFF304670BD034636
:10227C0013F8012B002AFBD1181A01387047000003
:10228C001D000A085D000A0889000A088D000A086A
:10229C0000000000507265737320616E79206B65CD
:1022AC007920746F2073746172742E00256600415E
:1022BC00553636353038315F64697374616E6365D9
:1022CC0000626175640053657269616C005553421C
:1022DC0053657269616C310074797065007061725C
:1022EC00616D00636D6400696400686E64007374F2
:1022FC00726D0066696C74006C766C006164644885
:10230C00616E646C65720072656D6F766548616EA6
:10231C00646C657200656E756D48616E646C657297
:10232C0073004A534F4E53747265616D4C6F67481E
:10233C00616E646C657200617070002530313075AF
:10234C0020005D20002564002C200028293A200064
:10235C00205B00636F6465203D2000256900646587
:10236C007461696C73203D20000D0A006C6E006670
:10237C006E00636F64650064657461696C006E6FF8
:10238C006E6500747261636500696E666F007761DB
:10239C00726E006572726F720070616E69630061BB
:1023AC006C6C005A00252B3033643A2530327500A2
:1023BC0025592D256D2D25645425483A254D3A2552
:1023CC0053257A0061736374696D65000000000029
:1023DC0000000000290A0A082F0A0A08730A0A08D2
:1023EC003D0A0A082B0A0A08000000000000000041
:1023FC00C10F0A08B10F0A08B30F0A080000000049
:10240C00000000007D100A08CD100A08DB100A0835
:10241C0069070A08B9100A087F100A0895100A08FB
:10242C00C7100A08AB100A0879100A08000000004F
:10243C00000000001D120A086D120A087B120A081F
:10244C0069070A0831120A0853120A083F120A08CF
:10245C0067120A081F120A0823120A08000000005B
:10246C000000000049130A0893130A086B130A08AA
:10247C004B130A0873130A087B130A0883130A0800
:10248C008B130A08000000000000000063140A0807
:10249C0059140A084F140A08CD130A0825080A080B
:1024AC0043140A0837140A082F140A0825140A08BA
:1024BC001B140A08D7130A080000000000000000D3
:1024CC0081140A088B140A0895140A089F140A0828
:1024DC00A9140A08B5140A08C1140A08CD140A086C
:1024EC00D5140A08DF140A08E9140A0800000000D1
:1024FC0000000000000000000000000000000000D0
:10250C0000000000000000000000000000000000BF
:10251C0000000000000000000000000000000000AF
:10252C00000000000000000000000000000000009F
:10253C00000000000000000000000000000000008F
:10254C00000000000000000000000000000000007F
:10255C004300000001020A0815030A0835070A089F
:10256C006D080A087D080A08D5080A086D140A08BF
:10257C0039150A08FD150A08F5160A0879170A080C
:10258C003D180A0801190A080000000000000000AC
:04259C00000000003B
:0425A0000000000037
:1025A400D0230A0800000000FC240A081C250A089D
:1025B4003C250A08000000000000000000000000A4
:1025C400000000005C250A08000000000000000074
:1025D40000000000000000000000000000000000F7
:1025E40000000000000000000000000000000000E7
:1025F40000000000000000000000000000000000D7
:082604000000000004000020AA
:10260C00FFFFFFFF00000102030405060708090A8B
:10261C000B0C0D0E0F101112131415161718191A86
:08262C001B1C1D1E1F202800CD
:04263400785634128E
:04000005080A001CC9
:00000001FF
